{
  "_format": "hh-sol-artifact-1",
  "contractName": "Coin",
  "sourceName": "contracts/Coin.sol",
  "abi": [
    {
      "constant": true,
      "inputs": [],
      "name": "name",
      "outputs": [
        {
          "name": "",
          "type": "bytes32"
        }
      ],
      "payable": false,
      "stateMutability": "view",
      "type": "function"
    },
    {
      "constant": false,
      "inputs": [
        {
          "name": "spender",
          "type": "address"
        },
        {
          "name": "tokens",
          "type": "uint64"
        }
      ],
      "name": "approve",
      "outputs": [
        {
          "name": "success",
          "type": "bool"
        }
      ],
      "payable": false,
      "stateMutability": "nonpayable",
      "type": "function"
    },
    {
      "constant": true,
      "inputs": [],
      "name": "LDCR",
      "outputs": [
        {
          "name": "",
          "type": "uint64"
        }
      ],
      "payable": false,
      "stateMutability": "view",
      "type": "function"
    },
    {
      "constant": false,
      "inputs": [],
      "name": "coin",
      "outputs": [],
      "payable": false,
      "stateMutability": "nonpayable",
      "type": "function"
    },
    {
      "constant": true,
      "inputs": [],
      "name": "totalSupply",
      "outputs": [
        {
          "name": "",
          "type": "uint64"
        }
      ],
      "payable": false,
      "stateMutability": "view",
      "type": "function"
    },
    {
      "constant": false,
      "inputs": [
        {
          "name": "_queId",
          "type": "bytes32"
        },
        {
          "name": "_hash",
          "type": "bytes32"
        }
      ],
      "name": "updateQuestion",
      "outputs": [],
      "payable": false,
      "stateMutability": "nonpayable",
      "type": "function"
    },
    {
      "constant": true,
      "inputs": [],
      "name": "TVA",
      "outputs": [
        {
          "name": "",
          "type": "uint64"
        }
      ],
      "payable": false,
      "stateMutability": "view",
      "type": "function"
    },
    {
      "constant": false,
      "inputs": [
        {
          "name": "from",
          "type": "address"
        },
        {
          "name": "to",
          "type": "address"
        },
        {
          "name": "tokens",
          "type": "uint64"
        }
      ],
      "name": "transferFrom",
      "outputs": [
        {
          "name": "success",
          "type": "bool"
        }
      ],
      "payable": false,
      "stateMutability": "nonpayable",
      "type": "function"
    },
    {
      "constant": true,
      "inputs": [],
      "name": "decimals",
      "outputs": [
        {
          "name": "",
          "type": "uint8"
        }
      ],
      "payable": false,
      "stateMutability": "view",
      "type": "function"
    },
    {
      "constant": true,
      "inputs": [],
      "name": "LDVA",
      "outputs": [
        {
          "name": "",
          "type": "uint64"
        }
      ],
      "payable": false,
      "stateMutability": "view",
      "type": "function"
    },
    {
      "constant": false,
      "inputs": [
        {
          "name": "_queId",
          "type": "bytes32"
        },
        {
          "name": "_hash",
          "type": "bytes32"
        }
      ],
      "name": "addAnswer",
      "outputs": [],
      "payable": false,
      "stateMutability": "nonpayable",
      "type": "function"
    },
    {
      "constant": true,
      "inputs": [],
      "name": "totalCoinPower",
      "outputs": [
        {
          "name": "",
          "type": "uint64"
        }
      ],
      "payable": false,
      "stateMutability": "view",
      "type": "function"
    },
    {
      "constant": false,
      "inputs": [
        {
          "name": "to",
          "type": "address"
        },
        {
          "name": "tokens",
          "type": "uint64"
        }
      ],
      "name": "transfer",
      "outputs": [
        {
          "name": "success",
          "type": "bool"
        }
      ],
      "payable": false,
      "stateMutability": "nonpayable",
      "type": "function"
    },
    {
      "constant": false,
      "inputs": [
        {
          "name": "coins",
          "type": "uint64"
        }
      ],
      "name": "power_up",
      "outputs": [
        {
          "name": "res",
          "type": "bool"
        }
      ],
      "payable": false,
      "stateMutability": "nonpayable",
      "type": "function"
    },
    {
      "constant": true,
      "inputs": [],
      "name": "getTrendingAnswersLength",
      "outputs": [
        {
          "name": "",
          "type": "uint256"
        }
      ],
      "payable": false,
      "stateMutability": "view",
      "type": "function"
    },
    {
      "constant": false,
      "inputs": [
        {
          "name": "_queId",
          "type": "bytes32"
        },
        {
          "name": "_ansId",
          "type": "bytes32"
        },
        {
          "name": "_hash",
          "type": "bytes32"
        }
      ],
      "name": "updateAnswer",
      "outputs": [],
      "payable": false,
      "stateMutability": "nonpayable",
      "type": "function"
    },
    {
      "constant": true,
      "inputs": [
        {
          "name": "",
          "type": "uint256"
        }
      ],
      "name": "questionsIndex",
      "outputs": [
        {
          "name": "",
          "type": "bytes32"
        }
      ],
      "payable": false,
      "stateMutability": "view",
      "type": "function"
    },
    {
      "constant": true,
      "inputs": [
        {
          "name": "tokenOwner",
          "type": "address"
        }
      ],
      "name": "balanceOf",
      "outputs": [
        {
          "name": "balance",
          "type": "uint64"
        }
      ],
      "payable": false,
      "stateMutability": "view",
      "type": "function"
    },
    {
      "constant": true,
      "inputs": [
        {
          "name": "",
          "type": "uint256"
        }
      ],
      "name": "allAnswers",
      "outputs": [
        {
          "name": "author",
          "type": "address"
        },
        {
          "name": "upvotes",
          "type": "uint16"
        },
        {
          "name": "downvotes",
          "type": "uint16"
        },
        {
          "name": "coinsMade",
          "type": "uint64"
        },
        {
          "name": "lastModificationTimestamp",
          "type": "uint64"
        },
        {
          "name": "creationTimestamp",
          "type": "uint64"
        },
        {
          "name": "vaa",
          "type": "uint64"
        },
        {
          "name": "ansId",
          "type": "bytes32"
        },
        {
          "name": "ans_hash",
          "type": "bytes32"
        },
        {
          "name": "queId",
          "type": "bytes32"
        },
        {
          "name": "isValid",
          "type": "bool"
        }
      ],
      "payable": false,
      "stateMutability": "view",
      "type": "function"
    },
    {
      "constant": false,
      "inputs": [
        {
          "name": "queId",
          "type": "bytes32"
        },
        {
          "name": "ansId",
          "type": "bytes32"
        },
        {
          "name": "reaction",
          "type": "uint8"
        }
      ],
      "name": "NoteReactionAns",
      "outputs": [],
      "payable": false,
      "stateMutability": "nonpayable",
      "type": "function"
    },
    {
      "constant": false,
      "inputs": [],
      "name": "userRefresh",
      "outputs": [],
      "payable": false,
      "stateMutability": "nonpayable",
      "type": "function"
    },
    {
      "constant": true,
      "inputs": [
        {
          "name": "",
          "type": "bytes32"
        }
      ],
      "name": "questions",
      "outputs": [
        {
          "name": "author",
          "type": "address"
        },
        {
          "name": "followers",
          "type": "uint32"
        },
        {
          "name": "coinsMade",
          "type": "uint64"
        },
        {
          "name": "lastModificationTimestamp",
          "type": "uint64"
        },
        {
          "name": "creationTimestamp",
          "type": "uint64"
        },
        {
          "name": "queId",
          "type": "bytes32"
        },
        {
          "name": "que_hash",
          "type": "bytes32"
        },
        {
          "name": "isValid",
          "type": "bool"
        }
      ],
      "payable": false,
      "stateMutability": "view",
      "type": "function"
    },
    {
      "constant": true,
      "inputs": [],
      "name": "symbol",
      "outputs": [
        {
          "name": "",
          "type": "bytes32"
        }
      ],
      "payable": false,
      "stateMutability": "view",
      "type": "function"
    },
    {
      "constant": false,
      "inputs": [
        {
          "name": "tokenAddress",
          "type": "address"
        },
        {
          "name": "tokens",
          "type": "uint64"
        }
      ],
      "name": "transferAnyERC20Token",
      "outputs": [
        {
          "name": "success",
          "type": "bool"
        }
      ],
      "payable": false,
      "stateMutability": "nonpayable",
      "type": "function"
    },
    {
      "constant": true,
      "inputs": [
        {
          "name": "",
          "type": "address"
        }
      ],
      "name": "users",
      "outputs": [
        {
          "name": "coinPower",
          "type": "uint64"
        },
        {
          "name": "vau",
          "type": "uint64"
        },
        {
          "name": "lastSettlementTimestamp",
          "type": "uint64"
        },
        {
          "name": "coins",
          "type": "uint64"
        },
        {
          "name": "ipower",
          "type": "uint8"
        },
        {
          "name": "userName",
          "type": "bytes32"
        }
      ],
      "payable": false,
      "stateMutability": "view",
      "type": "function"
    },
    {
      "constant": true,
      "inputs": [
        {
          "name": "",
          "type": "uint8"
        }
      ],
      "name": "work",
      "outputs": [
        {
          "name": "",
          "type": "uint8"
        }
      ],
      "payable": false,
      "stateMutability": "view",
      "type": "function"
    },
    {
      "constant": false,
      "inputs": [
        {
          "name": "_hash",
          "type": "bytes32"
        }
      ],
      "name": "addQuestion",
      "outputs": [],
      "payable": false,
      "stateMutability": "nonpayable",
      "type": "function"
    },
    {
      "constant": false,
      "inputs": [
        {
          "name": "coinPower",
          "type": "uint64"
        }
      ],
      "name": "power_down",
      "outputs": [
        {
          "name": "res",
          "type": "bool"
        }
      ],
      "payable": false,
      "stateMutability": "nonpayable",
      "type": "function"
    },
    {
      "constant": true,
      "inputs": [
        {
          "name": "tokenOwner",
          "type": "address"
        },
        {
          "name": "spender",
          "type": "address"
        }
      ],
      "name": "allowance",
      "outputs": [
        {
          "name": "remaining",
          "type": "uint64"
        }
      ],
      "payable": false,
      "stateMutability": "view",
      "type": "function"
    },
    {
      "constant": false,
      "inputs": [
        {
          "name": "_queId",
          "type": "bytes32"
        }
      ],
      "name": "followQuestion",
      "outputs": [],
      "payable": false,
      "stateMutability": "nonpayable",
      "type": "function"
    },
    {
      "payable": true,
      "stateMutability": "payable",
      "type": "fallback"
    },
    {
      "anonymous": false,
      "inputs": [
        {
          "indexed": true,
          "name": "_from",
          "type": "address"
        },
        {
          "indexed": true,
          "name": "_to",
          "type": "address"
        },
        {
          "indexed": false,
          "name": "_value",
          "type": "uint64"
        }
      ],
      "name": "Transfer",
      "type": "event"
    },
    {
      "anonymous": false,
      "inputs": [
        {
          "indexed": true,
          "name": "_owner",
          "type": "address"
        },
        {
          "indexed": true,
          "name": "_spender",
          "type": "address"
        },
        {
          "indexed": false,
          "name": "_value",
          "type": "uint64"
        }
      ],
      "name": "Approval",
      "type": "event"
    }
  ],
  "bytecode": "0x608060405234801561001057600080fd5b50614580806100206000396000f300608060405260043610610180576000357c0100000000000000000000000000000000000000000000000000000000900463ffffffff16806306fdde03146101855780631086a9aa146101b0578063115c33d3146101ed57806311df99951461021857806318160ddd1461022f5780631b6963a61461025a5780632028fa57146102835780632ea0dfe1146102ae578063313ce567146102eb5780633b13e3151461031657806359814167146103415780635aa409941461036a5780635d359fbd146103955780635dba0c44146103d25780636041b3061461040f57806365f60aaf1461043a5780636febc5821461046357806370a08231146104a057806372d424a9146104dd5780638cc47fed1461052457806390717f921461054d57806395addb901461056457806395d89b41146105a85780639a16b569146105d3578063a87430ba14610610578063ae9b83e414610652578063b7df07501461068f578063d6b531e5146106b8578063dd62ed3e146106f5578063f743fdca14610732575b600080fd5b34801561019157600080fd5b5061019a61075b565b6040516101a79190614399565b60405180910390f35b3480156101bc57600080fd5b506101d760048036036101d29190810190613fd1565b610761565b6040516101e4919061437e565b60405180910390f35b3480156101f957600080fd5b50610202610875565b60405161020f91906143cf565b60405180910390f35b34801561022457600080fd5b5061022d61088f565b005b34801561023b57600080fd5b50610244610bba565b60405161025191906143cf565b60405180910390f35b34801561026657600080fd5b50610281600480360361027c919081019061405f565b610c30565b005b34801561028f57600080fd5b50610298610d28565b6040516102a591906143cf565b60405180910390f35b3480156102ba57600080fd5b506102d560048036036102d09190810190613f82565b610d42565b6040516102e2919061437e565b60405180910390f35b3480156102f757600080fd5b506103006110b9565b60405161030d919061444b565b60405180910390f35b34801561032257600080fd5b5061032b6110cc565b60405161033891906143cf565b60405180910390f35b34801561034d57600080fd5b506103686004803603610363919081019061405f565b6110e6565b005b34801561037657600080fd5b5061037f6119a6565b60405161038c91906143cf565b60405180910390f35b3480156103a157600080fd5b506103bc60048036036103b79190810190613fd1565b6119c0565b6040516103c9919061437e565b60405180910390f35b3480156103de57600080fd5b506103f960048036036103f49190810190614162565b611c7a565b604051610406919061437e565b60405180910390f35b34801561041b57600080fd5b50610424611f13565b60405161043191906143b4565b60405180910390f35b34801561044657600080fd5b50610461600480360361045c919081019061409b565b611f20565b005b34801561046f57600080fd5b5061048a60048036036104859190810190614139565b6123d7565b6040516104979190614399565b60405180910390f35b3480156104ac57600080fd5b506104c760048036036104c29190810190613f1d565b6123fa565b6040516104d491906143cf565b60405180910390f35b3480156104e957600080fd5b5061050460048036036104ff9190810190614139565b61245a565b60405161051b9b9a9998979695949392919061422c565b60405180910390f35b34801561053057600080fd5b5061054b600480360361054691908101906140ea565b61255c565b005b34801561055957600080fd5b50610562612967565b005b34801561057057600080fd5b5061058b60048036036105869190810190614036565b612e95565b60405161059f9897969594939291906142d7565b60405180910390f35b3480156105b457600080fd5b506105bd612f56565b6040516105ca9190614399565b60405180910390f35b3480156105df57600080fd5b506105fa60048036036105f59190810190613fd1565b612f5c565b604051610607919061437e565b60405180910390f35b34801561061c57600080fd5b5061063760048036036106329190810190613f1d565b61308b565b604051610649969594939291906143ea565b60405180910390f35b34801561065e57600080fd5b506106796004803603610674919081019061418b565b613124565b604051610686919061444b565b60405180910390f35b34801561069b57600080fd5b506106b660048036036106b19190810190614036565b613144565b005b3480156106c457600080fd5b506106df60048036036106da9190810190614162565b6133db565b6040516106ec919061437e565b60405180910390f35b34801561070157600080fd5b5061071c60048036036107179190810190613f46565b6135e0565b60405161072991906143cf565b60405180910390f35b34801561073e57600080fd5b5061075960048036036107549190810190614036565b61367b565b005b60025481565b600081600b60003373ffffffffffffffffffffffffffffffffffffffff1673ffffffffffffffffffffffffffffffffffffffff16815260200190815260200160002060008573ffffffffffffffffffffffffffffffffffffffff1673ffffffffffffffffffffffffffffffffffffffff16815260200190815260200160002060006101000a81548167ffffffffffffffff021916908367ffffffffffffffff1602179055508273ffffffffffffffffffffffffffffffffffffffff163373ffffffffffffffffffffffffffffffffffffffff167f16304dfea7f3fbabcf59225f0629cb307fecb8d5652b069080aa9be2c765d7d28460405161086391906143cf565b60405180910390a36001905092915050565b600460009054906101000a900467ffffffffffffffff1681565b336000806101000a81548173ffffffffffffffffffffffffffffffffffffffff021916908373ffffffffffffffffffffffffffffffffffffffff1602179055507f636f696e00000000000000000000000000000000000000000000000000000000600181600019169055507f636f696e20546f6b656e00000000000000000000000000000000000000000000600281600019169055506008600360006101000a81548160ff021916908360ff160217905550633b9aca00600460006101000a81548167ffffffffffffffff021916908367ffffffffffffffff160217905550612710600460086101000a81548167ffffffffffffffff021916908367ffffffffffffffff1602179055506014600a6000600160ff16815260200190815260200160002060006101000a81548160ff021916908360ff160217905550600a806000600260ff16815260200190815260200160002060006101000a81548160ff021916908360ff1602179055506001600a6000600360ff16815260200190815260200160002060006101000a81548160ff021916908360ff1602179055506001600a6000600460ff16815260200190815260200160002060006101000a81548160ff021916908360ff1602179055506001600a6000600560ff16815260200190815260200160002060006101000a81548160ff021916908360ff160217905550662386f26fc10000600360016101000a81548167ffffffffffffffff021916908367ffffffffffffffff160217905550600360019054906101000a900467ffffffffffffffff16600560003373ffffffffffffffffffffffffffffffffffffffff1673ffffffffffffffffffffffffffffffffffffffff16815260200190815260200160002060000160186101000a81548167ffffffffffffffff021916908367ffffffffffffffff1602179055503373ffffffffffffffffffffffffffffffffffffffff16600073ffffffffffffffffffffffffffffffffffffffff167f831ac82b07fb396dafef0077cea6e002235d88e63f35cbd5df2c065107f1e74a600360019054906101000a900467ffffffffffffffff16604051610bb091906143cf565b60405180910390a3565b6000600560008073ffffffffffffffffffffffffffffffffffffffff1673ffffffffffffffffffffffffffffffffffffffff16815260200190815260200160002060000160189054906101000a900467ffffffffffffffff16600360019054906101000a900467ffffffffffffffff1603905090565b60006001151560066000856000191660001916815260200190815260200160002060060160009054906101000a900460ff161515141515610c7057600080fd5b60066000846000191660001916815260200190815260200160002090503373ffffffffffffffffffffffffffffffffffffffff168160000160009054906101000a900473ffffffffffffffffffffffffffffffffffffffff1673ffffffffffffffffffffffffffffffffffffffff16141515610ceb57600080fd5b81816003018160001916905550428160010160006101000a81548167ffffffffffffffff021916908367ffffffffffffffff160217905550505050565b600360119054906101000a900467ffffffffffffffff1681565b6000610db782600560008773ffffffffffffffffffffffffffffffffffffffff1673ffffffffffffffffffffffffffffffffffffffff16815260200190815260200160002060000160189054906101000a900467ffffffffffffffff1667ffffffffffffffff1661371590919063ffffffff16565b600560008673ffffffffffffffffffffffffffffffffffffffff1673ffffffffffffffffffffffffffffffffffffffff16815260200190815260200160002060000160186101000a81548167ffffffffffffffff021916908367ffffffffffffffff160217905550610ecc82600b60008773ffffffffffffffffffffffffffffffffffffffff1673ffffffffffffffffffffffffffffffffffffffff16815260200190815260200160002060003373ffffffffffffffffffffffffffffffffffffffff1673ffffffffffffffffffffffffffffffffffffffff16815260200190815260200160002060009054906101000a900467ffffffffffffffff1667ffffffffffffffff1661371590919063ffffffff16565b600b60008673ffffffffffffffffffffffffffffffffffffffff1673ffffffffffffffffffffffffffffffffffffffff16815260200190815260200160002060003373ffffffffffffffffffffffffffffffffffffffff1673ffffffffffffffffffffffffffffffffffffffff16815260200190815260200160002060006101000a81548167ffffffffffffffff021916908367ffffffffffffffff160217905550610fe182600560008673ffffffffffffffffffffffffffffffffffffffff1673ffffffffffffffffffffffffffffffffffffffff16815260200190815260200160002060000160189054906101000a900467ffffffffffffffff1667ffffffffffffffff1661374290919063ffffffff16565b600560008573ffffffffffffffffffffffffffffffffffffffff1673ffffffffffffffffffffffffffffffffffffffff16815260200190815260200160002060000160186101000a81548167ffffffffffffffff021916908367ffffffffffffffff1602179055508273ffffffffffffffffffffffffffffffffffffffff168473ffffffffffffffffffffffffffffffffffffffff167f831ac82b07fb396dafef0077cea6e002235d88e63f35cbd5df2c065107f1e74a846040516110a691906143cf565b60405180910390a3600190509392505050565b600360009054906101000a900460ff1681565b600460089054906101000a900467ffffffffffffffff1681565b60006001151560066000856000191660001916815260200190815260200160002060060160009054906101000a900460ff16151514151561112657600080fd5b338160000160006101000a81548173ffffffffffffffffffffffffffffffffffffffff021916908373ffffffffffffffffffffffffffffffffffffffff160217905550428160010160006101000a81548167ffffffffffffffff021916908367ffffffffffffffff160217905550428160010160086101000a81548167ffffffffffffffff021916908367ffffffffffffffff16021790555081816003018160001916905550818160020181600019169055508281600401816000191690555060018160050160006101000a81548160ff02191690831515021790555060066000846000191660001916815260200190815260200160002060050182908060018154018082558091505090600182039060005260206000200160009091929091909150906000191690555080600660008560001916600019168152602001908152602001600020600401600084600019166000191681526020019081526020016000206000820160009054906101000a900473ffffffffffffffffffffffffffffffffffffffff168160000160006101000a81548173ffffffffffffffffffffffffffffffffffffffff021916908373ffffffffffffffffffffffffffffffffffffffff1602179055506000820160149054906101000a900461ffff168160000160146101000a81548161ffff021916908361ffff1602179055506000820160169054906101000a900461ffff168160000160166101000a81548161ffff021916908361ffff1602179055506000820160189054906101000a900467ffffffffffffffff168160000160186101000a81548167ffffffffffffffff021916908367ffffffffffffffff1602179055506001820160009054906101000a900467ffffffffffffffff168160010160006101000a81548167ffffffffffffffff021916908367ffffffffffffffff1602179055506001820160089054906101000a900467ffffffffffffffff168160010160086101000a81548167ffffffffffffffff021916908367ffffffffffffffff1602179055506001820160109054906101000a900467ffffffffffffffff168160010160106101000a81548167ffffffffffffffff021916908367ffffffffffffffff1602179055506002820154816002019060001916905560038201548160030190600019169055600482015481600401906000191690556005820160009054906101000a900460ff168160050160006101000a81548160ff021916908315150217905550905050600881908060018154018082558091505090600182039060005260206000209060060201600090919290919091506000820160009054906101000a900473ffffffffffffffffffffffffffffffffffffffff168160000160006101000a81548173ffffffffffffffffffffffffffffffffffffffff021916908373ffffffffffffffffffffffffffffffffffffffff1602179055506000820160149054906101000a900461ffff168160000160146101000a81548161ffff021916908361ffff1602179055506000820160169054906101000a900461ffff168160000160166101000a81548161ffff021916908361ffff1602179055506000820160189054906101000a900467ffffffffffffffff168160000160186101000a81548167ffffffffffffffff021916908367ffffffffffffffff1602179055506001820160009054906101000a900467ffffffffffffffff168160010160006101000a81548167ffffffffffffffff021916908367ffffffffffffffff1602179055506001820160089054906101000a900467ffffffffffffffff168160010160086101000a81548167ffffffffffffffff021916908367ffffffffffffffff1602179055506001820160109054906101000a900467ffffffffffffffff168160010160106101000a81548167ffffffffffffffff021916908367ffffffffffffffff1602179055506002820154816002019060001916905560038201548160030190600019169055600482015481600401906000191690556005820160009054906101000a900460ff168160050160006101000a81548160ff021916908315150217905550505050806009600084600019166000191681526020019081526020016000206000820160009054906101000a900473ffffffffffffffffffffffffffffffffffffffff168160000160006101000a81548173ffffffffffffffffffffffffffffffffffffffff021916908373ffffffffffffffffffffffffffffffffffffffff1602179055506000820160149054906101000a900461ffff168160000160146101000a81548161ffff021916908361ffff1602179055506000820160169054906101000a900461ffff168160000160166101000a81548161ffff021916908361ffff1602179055506000820160189054906101000a900467ffffffffffffffff168160000160186101000a81548167ffffffffffffffff021916908367ffffffffffffffff1602179055506001820160009054906101000a900467ffffffffffffffff168160010160006101000a81548167ffffffffffffffff021916908367ffffffffffffffff1602179055506001820160089054906101000a900467ffffffffffffffff168160010160086101000a81548167ffffffffffffffff021916908367ffffffffffffffff1602179055506001820160109054906101000a900467ffffffffffffffff168160010160106101000a81548167ffffffffffffffff021916908367ffffffffffffffff1602179055506002820154816002019060001916905560038201548160030190600019169055600482015481600401906000191690556005820160009054906101000a900460ff168160050160006101000a81548160ff0219169083151502179055509050506119a033600a6000600160ff16815260200190815260200160002060009054906101000a900460ff16613774565b50505050565b600360099054906101000a900467ffffffffffffffff1681565b60008167ffffffffffffffff16600560003373ffffffffffffffffffffffffffffffffffffffff1673ffffffffffffffffffffffffffffffffffffffff16815260200190815260200160002060000160189054906101000a900467ffffffffffffffff1667ffffffffffffffff1610158015611a46575060008267ffffffffffffffff16115b15611c6f57611abe82600560003373ffffffffffffffffffffffffffffffffffffffff1673ffffffffffffffffffffffffffffffffffffffff16815260200190815260200160002060000160189054906101000a900467ffffffffffffffff1667ffffffffffffffff1661371590919063ffffffff16565b600560003373ffffffffffffffffffffffffffffffffffffffff1673ffffffffffffffffffffffffffffffffffffffff16815260200190815260200160002060000160186101000a81548167ffffffffffffffff021916908367ffffffffffffffff160217905550611b9982600560008673ffffffffffffffffffffffffffffffffffffffff1673ffffffffffffffffffffffffffffffffffffffff16815260200190815260200160002060000160189054906101000a900467ffffffffffffffff1667ffffffffffffffff1661374290919063ffffffff16565b600560008573ffffffffffffffffffffffffffffffffffffffff1673ffffffffffffffffffffffffffffffffffffffff16815260200190815260200160002060000160186101000a81548167ffffffffffffffff021916908367ffffffffffffffff1602179055508273ffffffffffffffffffffffffffffffffffffffff163373ffffffffffffffffffffffffffffffffffffffff167f831ac82b07fb396dafef0077cea6e002235d88e63f35cbd5df2c065107f1e74a84604051611c5e91906143cf565b60405180910390a360019050611c74565b600090505b92915050565b60008167ffffffffffffffff16600560003373ffffffffffffffffffffffffffffffffffffffff1673ffffffffffffffffffffffffffffffffffffffff16815260200190815260200160002060000160189054906101000a900467ffffffffffffffff1667ffffffffffffffff16101515611f0957611d6282600560003373ffffffffffffffffffffffffffffffffffffffff1673ffffffffffffffffffffffffffffffffffffffff16815260200190815260200160002060000160189054906101000a900467ffffffffffffffff1667ffffffffffffffff1661371590919063ffffffff16565b600560003373ffffffffffffffffffffffffffffffffffffffff1673ffffffffffffffffffffffffffffffffffffffff16815260200190815260200160002060000160186101000a81548167ffffffffffffffff021916908367ffffffffffffffff160217905550611e3d82600560003373ffffffffffffffffffffffffffffffffffffffff1673ffffffffffffffffffffffffffffffffffffffff16815260200190815260200160002060000160009054906101000a900467ffffffffffffffff1667ffffffffffffffff1661374290919063ffffffff16565b600560003373ffffffffffffffffffffffffffffffffffffffff1673ffffffffffffffffffffffffffffffffffffffff16815260200190815260200160002060000160006101000a81548167ffffffffffffffff021916908367ffffffffffffffff160217905550611ed882600360099054906101000a900467ffffffffffffffff1667ffffffffffffffff1661374290919063ffffffff16565b600360096101000a81548167ffffffffffffffff021916908367ffffffffffffffff16021790555060019050611f0e565b600090505b919050565b6000600880549050905090565b6000611f2a613c78565b6001151560066000876000191660001916815260200190815260200160002060060160009054906101000a900460ff161515141515611f6857600080fd5b600660008660001916600019168152602001908152602001600020915060011515826004016000866000191660001916815260200190815260200160002060050160009054906101000a900460ff161515141515611fc557600080fd5b816004016000856000191660001916815260200190815260200160002061016060405190810160405290816000820160009054906101000a900473ffffffffffffffffffffffffffffffffffffffff1673ffffffffffffffffffffffffffffffffffffffff1673ffffffffffffffffffffffffffffffffffffffff1681526020016000820160149054906101000a900461ffff1661ffff1661ffff1681526020016000820160169054906101000a900461ffff1661ffff1661ffff1681526020016000820160189054906101000a900467ffffffffffffffff1667ffffffffffffffff1667ffffffffffffffff1681526020016001820160009054906101000a900467ffffffffffffffff1667ffffffffffffffff1667ffffffffffffffff1681526020016001820160089054906101000a900467ffffffffffffffff1667ffffffffffffffff1667ffffffffffffffff1681526020016001820160109054906101000a900467ffffffffffffffff1667ffffffffffffffff1667ffffffffffffffff1681526020016002820154600019166000191681526020016003820154600019166000191681526020016004820154600019166000191681526020016005820160009054906101000a900460ff16151515158152505090503373ffffffffffffffffffffffffffffffffffffffff16816000015173ffffffffffffffffffffffffffffffffffffffff161415156121de57600080fd5b82816101000190600019169081600019168152505042816080019067ffffffffffffffff16908167ffffffffffffffff168152505080826004016000866000191660001916815260200190815260200160002060008201518160000160006101000a81548173ffffffffffffffffffffffffffffffffffffffff021916908373ffffffffffffffffffffffffffffffffffffffff16021790555060208201518160000160146101000a81548161ffff021916908361ffff16021790555060408201518160000160166101000a81548161ffff021916908361ffff16021790555060608201518160000160186101000a81548167ffffffffffffffff021916908367ffffffffffffffff16021790555060808201518160010160006101000a81548167ffffffffffffffff021916908367ffffffffffffffff16021790555060a08201518160010160086101000a81548167ffffffffffffffff021916908367ffffffffffffffff16021790555060c08201518160010160106101000a81548167ffffffffffffffff021916908367ffffffffffffffff16021790555060e08201518160020190600019169055610100820151816003019060001916905561012082015181600401906000191690556101408201518160050160006101000a81548160ff0219169083151502179055509050505050505050565b6007818154811015156123e657fe5b906000526020600020016000915090505481565b6000600560008373ffffffffffffffffffffffffffffffffffffffff1673ffffffffffffffffffffffffffffffffffffffff16815260200190815260200160002060000160189054906101000a900467ffffffffffffffff169050919050565b60088181548110151561246957fe5b90600052602060002090600602016000915090508060000160009054906101000a900473ffffffffffffffffffffffffffffffffffffffff16908060000160149054906101000a900461ffff16908060000160169054906101000a900461ffff16908060000160189054906101000a900467ffffffffffffffff16908060010160009054906101000a900467ffffffffffffffff16908060010160089054906101000a900467ffffffffffffffff16908060010160109054906101000a900467ffffffffffffffff16908060020154908060030154908060040154908060050160009054906101000a900460ff1690508b565b600080612567613d24565b6001151560066000886000191660001916815260200190815260200160002060060160009054906101000a900460ff1615151415156125a557600080fd5b600660008760001916600019168152602001908152602001600020925060011515836004016000876000191660001916815260200190815260200160002060050160009054906101000a900460ff16151514151561260257600080fd5b826004016000866000191660001916815260200190815260200160002091506000600560003373ffffffffffffffffffffffffffffffffffffffff1673ffffffffffffffffffffffffffffffffffffffff1681526020019081526020016000206002016000876000191660001916815260200190815260200160002060000160009054906101000a900460ff1660ff1614151561269e57600080fd5b6126ce33600a60008760ff1660ff16815260200190815260200160002060009054906101000a900460ff16613774565b8260010160108282829054906101000a900467ffffffffffffffff160192506101000a81548167ffffffffffffffff021916908367ffffffffffffffff16021790555060038460ff1614156127555781600001601481819054906101000a900461ffff168092919060010191906101000a81548161ffff021916908361ffff160217905550505b60048460ff1614156127995781600001601681819054906101000a900461ffff168092919060010191906101000a81548161ffff021916908361ffff160217905550505b83816000019060ff16908160ff16815250508160000160149054906101000a900461ffff16816020019061ffff16908161ffff16815250508160000160169054906101000a900461ffff16816040019061ffff16908161ffff1681525050848160600190600019169081600019168152505080600560003373ffffffffffffffffffffffffffffffffffffffff1673ffffffffffffffffffffffffffffffffffffffff1681526020019081526020016000206002016000876000191660001916815260200190815260200160002060008201518160000160006101000a81548160ff021916908360ff16021790555060208201518160000160016101000a81548161ffff021916908361ffff16021790555060408201518160000160036101000a81548161ffff021916908361ffff1602179055506060820151816001019060001916905590505060038460ff16141561295f5761291b8260000160009054906101000a900473ffffffffffffffffffffffffffffffffffffffff1685613774565b8260010160108282829054906101000a900467ffffffffffffffff160192506101000a81548167ffffffffffffffff021916908367ffffffffffffffff1602179055505b505050505050565b60008060008060008060008033975060009650600560008973ffffffffffffffffffffffffffffffffffffffff1673ffffffffffffffffffffffffffffffffffffffff1681526020019081526020016000206009019550600094505b8580549050851015612ab157612aa0612a5887878154811015156129e357fe5b9060005260206000200160000160019054906101000a900460ff1660ff16612a3a8989815481101515612a1257fe5b90600052602060002001600001600a9054906101000a900467ffffffffffffffff16426137cf565b63ffffffff1667ffffffffffffffff1661382090919063ffffffff16565b8787815481101515612a6657fe5b9060005260206000200160000160029054906101000a900467ffffffffffffffff1667ffffffffffffffff1661384f90919063ffffffff16565b8701965084806001019550506129c3565b86600560008a73ffffffffffffffffffffffffffffffffffffffff1673ffffffffffffffffffffffffffffffffffffffff16815260200190815260200160002060000160008282829054906101000a900467ffffffffffffffff160392506101000a81548167ffffffffffffffff021916908367ffffffffffffffff16021790555086600360098282829054906101000a900467ffffffffffffffff160392506101000a81548167ffffffffffffffff021916908367ffffffffffffffff16021790555086600560008a73ffffffffffffffffffffffffffffffffffffffff1673ffffffffffffffffffffffffffffffffffffffff16815260200190815260200160002060000160188282829054906101000a900467ffffffffffffffff160192506101000a81548167ffffffffffffffff021916908367ffffffffffffffff160217905550600094505b600560003373ffffffffffffffffffffffffffffffffffffffff1673ffffffffffffffffffffffffffffffffffffffff16815260200190815260200160002060030180549050851015612e8b57600560003373ffffffffffffffffffffffffffffffffffffffff1673ffffffffffffffffffffffffffffffffffffffff1681526020019081526020016000206002016000600560003373ffffffffffffffffffffffffffffffffffffffff1673ffffffffffffffffffffffffffffffffffffffff16815260200190815260200160002060030187815481101515612cdc57fe5b906000526020600020015460001916600019168152602001908152602001600020935060096000600560003373ffffffffffffffffffffffffffffffffffffffff1673ffffffffffffffffffffffffffffffffffffffff16815260200190815260200160002060030187815481101515612d5257fe5b906000526020600020015460001916600019168152602001908152602001600020925060038460000160009054906101000a900460ff1660ff161415612dcb578360000160019054906101000a900461ffff168360000160149054906101000a900461ffff16039150612dc533836138bc565b50612e1e565b60048460000160009054906101000a900460ff1660ff161415612e1d578360000160039054906101000a900461ffff168360000160169054906101000a900461ffff16039050612e1b33826138bc565b505b5b8260000160149054906101000a900461ffff168460000160016101000a81548161ffff021916908361ffff1602179055508260000160169054906101000a900461ffff168460000160036101000a81548161ffff021916908361ffff160217905550846001019450612bfc565b5050505050505050565b60066020528060005260406000206000915090508060000160009054906101000a900473ffffffffffffffffffffffffffffffffffffffff16908060000160149054906101000a900463ffffffff16908060000160189054906101000a900467ffffffffffffffff16908060010160009054906101000a900467ffffffffffffffff16908060010160089054906101000a900467ffffffffffffffff16908060020154908060030154908060060160009054906101000a900460ff16905088565b60015481565b60008060009054906101000a900473ffffffffffffffffffffffffffffffffffffffff1673ffffffffffffffffffffffffffffffffffffffff163373ffffffffffffffffffffffffffffffffffffffff16141515612fb957600080fd5b8273ffffffffffffffffffffffffffffffffffffffff16635d359fbd6000809054906101000a900473ffffffffffffffffffffffffffffffffffffffff16846040518363ffffffff167c0100000000000000000000000000000000000000000000000000000000028152600401613031929190614355565b602060405180830381600087803b15801561304b57600080fd5b505af115801561305f573d6000803e3d6000fd5b505050506040513d601f19601f82011682018060405250613083919081019061400d565b905092915050565b60056020528060005260406000206000915090508060000160009054906101000a900467ffffffffffffffff16908060000160089054906101000a900467ffffffffffffffff16908060000160109054906101000a900467ffffffffffffffff16908060000160189054906101000a900467ffffffffffffffff16908060010160009054906101000a900460ff16908060080154905086565b600a6020528060005260406000206000915054906101000a900460ff1681565b61314c613d5b565b33816000019073ffffffffffffffffffffffffffffffffffffffff16908173ffffffffffffffffffffffffffffffffffffffff168152505042816060019067ffffffffffffffff16908167ffffffffffffffff168152505042816080019067ffffffffffffffff16908167ffffffffffffffff1681525050818160a001906000191690816000191681525050818160c00190600019169081600019168152505060018161010001901515908115158152505060078290806001815401808255809150509060018203906000526020600020016000909192909190915090600019169055508060066000846000191660001916815260200190815260200160002060008201518160000160006101000a81548173ffffffffffffffffffffffffffffffffffffffff021916908373ffffffffffffffffffffffffffffffffffffffff16021790555060208201518160000160146101000a81548163ffffffff021916908363ffffffff16021790555060408201518160000160186101000a81548167ffffffffffffffff021916908367ffffffffffffffff16021790555060608201518160010160006101000a81548167ffffffffffffffff021916908367ffffffffffffffff16021790555060808201518160010160086101000a81548167ffffffffffffffff021916908367ffffffffffffffff16021790555060a0820151816002019060001916905560c0820151816003019060001916905560e0820151816005019080519060200190613383929190613dea565b506101008201518160060160006101000a81548160ff0219169083151502179055509050506133d633600a6000600260ff16815260200190815260200160002060009054906101000a900460ff16613774565b505050565b60006133e5613e3d565b8267ffffffffffffffff16600560003373ffffffffffffffffffffffffffffffffffffffff1673ffffffffffffffffffffffffffffffffffffffff16815260200190815260200160002060000160009054906101000a900467ffffffffffffffff1667ffffffffffffffff161015156135d05782816040019067ffffffffffffffff16908167ffffffffffffffff16815250506014816020019060ff16908160ff168152505042816060019067ffffffffffffffff16908167ffffffffffffffff16815250506000816000019060ff16908160ff1681525050600560003373ffffffffffffffffffffffffffffffffffffffff1673ffffffffffffffffffffffffffffffffffffffff1681526020019081526020016000206009018190806001815401808255809150509060018203906000526020600020016000909192909190915060008201518160000160006101000a81548160ff021916908360ff16021790555060208201518160000160016101000a81548160ff021916908360ff16021790555060408201518160000160026101000a81548167ffffffffffffffff021916908367ffffffffffffffff160217905550606082015181600001600a6101000a81548167ffffffffffffffff021916908367ffffffffffffffff1602179055505050506135d9565b600091506135da565b5b50919050565b6000600b60008473ffffffffffffffffffffffffffffffffffffffff1673ffffffffffffffffffffffffffffffffffffffff16815260200190815260200160002060008373ffffffffffffffffffffffffffffffffffffffff1673ffffffffffffffffffffffffffffffffffffffff16815260200190815260200160002060009054906101000a900467ffffffffffffffff16905092915050565b60006001151560066000846000191660001916815260200190815260200160002060060160009054906101000a900460ff1615151415156136bb57600080fd5b600660008360001916600019168152602001908152602001600020905060018160000160148282829054906101000a900463ffffffff160192506101000a81548163ffffffff021916908363ffffffff1602179055505050565b60008267ffffffffffffffff168267ffffffffffffffff161115151561373757fe5b818303905092915050565b60008082840190508367ffffffffffffffff168167ffffffffffffffff161015151561376a57fe5b8091505092915050565b6000806137818484613a89565b905080600360118282829054906101000a900467ffffffffffffffff160192506101000a81548167ffffffffffffffff021916908367ffffffffffffffff1602179055508091505092915050565b6000806000848403915060008267ffffffffffffffff161115156137f257600080fd5b61381363234c41408367ffffffffffffffff1661382090919063ffffffff16565b9050809250505092915050565b6000808267ffffffffffffffff168467ffffffffffffffff1681151561384257fe5b0490508091505092915050565b60008060008467ffffffffffffffff16141561386e57600091506138b5565b82840290508267ffffffffffffffff168467ffffffffffffffff168267ffffffffffffffff1681151561389d57fe5b0467ffffffffffffffff161415156138b157fe5b8091505b5092915050565b6000806000806000600560008873ffffffffffffffffffffffffffffffffffffffff1673ffffffffffffffffffffffffffffffffffffffff16815260200190815260200160002060000160009054906101000a900467ffffffffffffffff169350662386f26fc10000925061398161396885613950600a8a61ffff1667ffffffffffffffff1661382090919063ffffffff16565b67ffffffffffffffff1661384f90919063ffffffff16565b8467ffffffffffffffff1661384f90919063ffffffff16565b91506139b6600360099054906101000a900467ffffffffffffffff168367ffffffffffffffff1661382090919063ffffffff16565b905080600560008973ffffffffffffffffffffffffffffffffffffffff1673ffffffffffffffffffffffffffffffffffffffff16815260200190815260200160002060000160088282829054906101000a900467ffffffffffffffff160192506101000a81548167ffffffffffffffff021916908367ffffffffffffffff16021790555080600360118282829054906101000a900467ffffffffffffffff160192506101000a81548167ffffffffffffffff021916908367ffffffffffffffff1602179055508094505050505092915050565b6000806000806000600560008873ffffffffffffffffffffffffffffffffffffffff1673ffffffffffffffffffffffffffffffffffffffff16815260200190815260200160002060000160009054906101000a900467ffffffffffffffff169350662386f26fc100009250613b85613b6c85613b5489600560008d73ffffffffffffffffffffffffffffffffffffffff1673ffffffffffffffffffffffffffffffffffffffff16815260200190815260200160002060010160009054906101000a900460ff16613c4b565b67ffffffffffffffff1661384f90919063ffffffff16565b8467ffffffffffffffff1661384f90919063ffffffff16565b9150613bba600360099054906101000a900467ffffffffffffffff168367ffffffffffffffff1661382090919063ffffffff16565b905080600560008973ffffffffffffffffffffffffffffffffffffffff1673ffffffffffffffffffffffffffffffffffffffff16815260200190815260200160002060000160088282829054906101000a900467ffffffffffffffff160192506101000a81548167ffffffffffffffff021916908367ffffffffffffffff1602179055508094505050505092915050565b6000613c708260ff168460ff1667ffffffffffffffff1661384f90919063ffffffff16565b905092915050565b61016060405190810160405280600073ffffffffffffffffffffffffffffffffffffffff168152602001600061ffff168152602001600061ffff168152602001600067ffffffffffffffff168152602001600067ffffffffffffffff168152602001600067ffffffffffffffff168152602001600067ffffffffffffffff1681526020016000801916815260200160008019168152602001600080191681526020016000151581525090565b608060405190810160405280600060ff168152602001600061ffff168152602001600061ffff168152602001600080191681525090565b61012060405190810160405280600073ffffffffffffffffffffffffffffffffffffffff168152602001600063ffffffff168152602001600067ffffffffffffffff168152602001600067ffffffffffffffff168152602001600067ffffffffffffffff1681526020016000801916815260200160008019168152602001606081526020016000151581525090565b828054828255906000526020600020908101928215613e2c579160200282015b82811115613e2b578251829060001916905591602001919060010190613e0a565b5b509050613e399190613e80565b5090565b608060405190810160405280600060ff168152602001600060ff168152602001600067ffffffffffffffff168152602001600067ffffffffffffffff1681525090565b613ea291905b80821115613e9e576000816000905550600101613e86565b5090565b90565b6000613eb182356144e5565b905092915050565b6000613ec58251614505565b905092915050565b6000613ed98235614511565b905092915050565b6000613eed823561451b565b905092915050565b6000613f018235614525565b905092915050565b6000613f158235614539565b905092915050565b600060208284031215613f2f57600080fd5b6000613f3d84828501613ea5565b91505092915050565b60008060408385031215613f5957600080fd5b6000613f6785828601613ea5565b9250506020613f7885828601613ea5565b9150509250929050565b600080600060608486031215613f9757600080fd5b6000613fa586828701613ea5565b9350506020613fb686828701613ea5565b9250506040613fc786828701613ef5565b9150509250925092565b60008060408385031215613fe457600080fd5b6000613ff285828601613ea5565b925050602061400385828601613ef5565b9150509250929050565b60006020828403121561401f57600080fd5b600061402d84828501613eb9565b91505092915050565b60006020828403121561404857600080fd5b600061405684828501613ecd565b91505092915050565b6000806040838503121561407257600080fd5b600061408085828601613ecd565b925050602061409185828601613ecd565b9150509250929050565b6000806000606084860312156140b057600080fd5b60006140be86828701613ecd565b93505060206140cf86828701613ecd565b92505060406140e086828701613ecd565b9150509250925092565b6000806000606084860312156140ff57600080fd5b600061410d86828701613ecd565b935050602061411e86828701613ecd565b925050604061412f86828701613f09565b9150509250925092565b60006020828403121561414b57600080fd5b600061415984828501613ee1565b91505092915050565b60006020828403121561417457600080fd5b600061418284828501613ef5565b91505092915050565b60006020828403121561419d57600080fd5b60006141ab84828501613f09565b91505092915050565b6141bd81614466565b82525050565b6141cc81614486565b82525050565b6141db81614492565b82525050565b6141ea8161449c565b82525050565b6141f9816144aa565b82525050565b614208816144b4565b82525050565b614217816144c4565b82525050565b614226816144d8565b82525050565b600061016082019050614242600083018e6141b4565b61424f602083018d6141e1565b61425c604083018c6141e1565b614269606083018b61420e565b614276608083018a61420e565b61428360a083018961420e565b61429060c083018861420e565b61429d60e08301876141d2565b6142ab6101008301866141d2565b6142b96101208301856141d2565b6142c76101408301846141c3565b9c9b505050505050505050505050565b6000610100820190506142ed600083018b6141b4565b6142fa602083018a6141ff565b614307604083018961420e565b614314606083018861420e565b614321608083018761420e565b61432e60a08301866141d2565b61433b60c08301856141d2565b61434860e08301846141c3565b9998505050505050505050565b600060408201905061436a60008301856141b4565b614377602083018461420e565b9392505050565b600060208201905061439360008301846141c3565b92915050565b60006020820190506143ae60008301846141d2565b92915050565b60006020820190506143c960008301846141f0565b92915050565b60006020820190506143e4600083018461420e565b92915050565b600060c0820190506143ff600083018961420e565b61440c602083018861420e565b614419604083018761420e565b614426606083018661420e565b614433608083018561421d565b61444060a08301846141d2565b979650505050505050565b6000602082019050614460600083018461421d565b92915050565b600073ffffffffffffffffffffffffffffffffffffffff82169050919050565b60008115159050919050565b6000819050919050565b600061ffff82169050919050565b6000819050919050565b600063ffffffff82169050919050565b600067ffffffffffffffff82169050919050565b600060ff82169050919050565b600073ffffffffffffffffffffffffffffffffffffffff82169050919050565b60008115159050919050565b6000819050919050565b6000819050919050565b600067ffffffffffffffff82169050919050565b600060ff821690509190505600a265627a7a72305820ef82ce3b6aa85c9a8a53f1aa08fda804d2a23f0bd2983fb79568e6ea62804e676c6578706572696d656e74616cf50037",
  "linkReferences": {},
  "deployedLinkReferences": {}
}