{
  "_format": "hh-sol-artifact-1",
  "contractName": "ERC20Interface",
  "sourceName": "contracts/Coin.sol",
  "abi": [
    {
      "constant": false,
      "inputs": [
        {
          "name": "_spender",
          "type": "address"
        },
        {
          "name": "_value",
          "type": "uint64"
        }
      ],
      "name": "approve",
      "outputs": [
        {
          "name": "success",
          "type": "bool"
        }
      ],
      "payable": false,
      "stateMutability": "nonpayable",
      "type": "function"
    },
    {
      "constant": true,
      "inputs": [],
      "name": "totalSupply",
      "outputs": [
        {
          "name": "supply",
          "type": "uint64"
        }
      ],
      "payable": false,
      "stateMutability": "view",
      "type": "function"
    },
    {
      "constant": false,
      "inputs": [
        {
          "name": "_from",
          "type": "address"
        },
        {
          "name": "_to",
          "type": "address"
        },
        {
          "name": "_value",
          "type": "uint64"
        }
      ],
      "name": "transferFrom",
      "outputs": [
        {
          "name": "success",
          "type": "bool"
        }
      ],
      "payable": false,
      "stateMutability": "nonpayable",
      "type": "function"
    },
    {
      "constant": false,
      "inputs": [
        {
          "name": "_to",
          "type": "address"
        },
        {
          "name": "_value",
          "type": "uint64"
        }
      ],
      "name": "transfer",
      "outputs": [
        {
          "name": "success",
          "type": "bool"
        }
      ],
      "payable": false,
      "stateMutability": "nonpayable",
      "type": "function"
    },
    {
      "constant": true,
      "inputs": [
        {
          "name": "_owner",
          "type": "address"
        }
      ],
      "name": "balanceOf",
      "outputs": [
        {
          "name": "balance",
          "type": "uint64"
        }
      ],
      "payable": false,
      "stateMutability": "view",
      "type": "function"
    },
    {
      "constant": true,
      "inputs": [
        {
          "name": "_owner",
          "type": "address"
        },
        {
          "name": "_spender",
          "type": "address"
        }
      ],
      "name": "allowance",
      "outputs": [
        {
          "name": "remaining",
          "type": "uint64"
        }
      ],
      "payable": false,
      "stateMutability": "view",
      "type": "function"
    },
    {
      "anonymous": false,
      "inputs": [
        {
          "indexed": true,
          "name": "_from",
          "type": "address"
        },
        {
          "indexed": true,
          "name": "_to",
          "type": "address"
        },
        {
          "indexed": false,
          "name": "_value",
          "type": "uint64"
        }
      ],
      "name": "Transfer",
      "type": "event"
    },
    {
      "anonymous": false,
      "inputs": [
        {
          "indexed": true,
          "name": "_owner",
          "type": "address"
        },
        {
          "indexed": true,
          "name": "_spender",
          "type": "address"
        },
        {
          "indexed": false,
          "name": "_value",
          "type": "uint64"
        }
      ],
      "name": "Approval",
      "type": "event"
    }
  ],
  "bytecode": "0x608060405234801561001057600080fd5b50610400806100206000396000f300608060405260043610610078576000357c0100000000000000000000000000000000000000000000000000000000900463ffffffff1680631086a9aa1461007d57806318160ddd146100ba5780632ea0dfe1146100e55780635d359fbd1461012257806370a082311461015f578063dd62ed3e1461019c575b600080fd5b34801561008957600080fd5b506100a4600480360361009f91908101906102e2565b6101d9565b6040516100b1919061033c565b60405180910390f35b3480156100c657600080fd5b506100cf6101e1565b6040516100dc9190610357565b60405180910390f35b3480156100f157600080fd5b5061010c60048036036101079190810190610293565b6101e6565b604051610119919061033c565b60405180910390f35b34801561012e57600080fd5b50610149600480360361014491908101906102e2565b6101ef565b604051610156919061033c565b60405180910390f35b34801561016b57600080fd5b506101866004803603610181919081019061022e565b6101f7565b6040516101939190610357565b60405180910390f35b3480156101a857600080fd5b506101c360048036036101be9190810190610257565b6101fe565b6040516101d09190610357565b60405180910390f35b600092915050565b600090565b60009392505050565b600092915050565b6000919050565b600092915050565b60006102128235610392565b905092915050565b600061022682356103b2565b905092915050565b60006020828403121561024057600080fd5b600061024e84828501610206565b91505092915050565b6000806040838503121561026a57600080fd5b600061027885828601610206565b925050602061028985828601610206565b9150509250929050565b6000806000606084860312156102a857600080fd5b60006102b686828701610206565b93505060206102c786828701610206565b92505060406102d88682870161021a565b9150509250925092565b600080604083850312156102f557600080fd5b600061030385828601610206565b92505060206103148582860161021a565b9150509250929050565b61032781610372565b82525050565b6103368161037e565b82525050565b6000602082019050610351600083018461031e565b92915050565b600060208201905061036c600083018461032d565b92915050565b60008115159050919050565b600067ffffffffffffffff82169050919050565b600073ffffffffffffffffffffffffffffffffffffffff82169050919050565b600067ffffffffffffffff821690509190505600a265627a7a7230582056d74ff32f7b68d5bfb003050b93e3dc7d960f1d2bedbd33657369744a9133f16c6578706572696d656e74616cf50037",
  "linkReferences": {},
  "deployedLinkReferences": {}
}