{
  "contractName": "ERC20Interface",
  "abi": [
    {
      "anonymous": false,
      "inputs": [
        {
          "indexed": true,
          "name": "_from",
          "type": "address"
        },
        {
          "indexed": true,
          "name": "_to",
          "type": "address"
        },
        {
          "indexed": false,
          "name": "_value",
          "type": "uint64"
        }
      ],
      "name": "Transfer",
      "type": "event"
    },
    {
      "anonymous": false,
      "inputs": [
        {
          "indexed": true,
          "name": "_owner",
          "type": "address"
        },
        {
          "indexed": true,
          "name": "_spender",
          "type": "address"
        },
        {
          "indexed": false,
          "name": "_value",
          "type": "uint64"
        }
      ],
      "name": "Approval",
      "type": "event"
    },
    {
      "constant": true,
      "inputs": [],
      "name": "totalSupply",
      "outputs": [
        {
          "name": "supply",
          "type": "uint64"
        }
      ],
      "payable": false,
      "stateMutability": "view",
      "type": "function"
    },
    {
      "constant": true,
      "inputs": [
        {
          "name": "_owner",
          "type": "address"
        }
      ],
      "name": "balanceOf",
      "outputs": [
        {
          "name": "balance",
          "type": "uint64"
        }
      ],
      "payable": false,
      "stateMutability": "view",
      "type": "function"
    },
    {
      "constant": false,
      "inputs": [
        {
          "name": "_to",
          "type": "address"
        },
        {
          "name": "_value",
          "type": "uint64"
        }
      ],
      "name": "transfer",
      "outputs": [
        {
          "name": "success",
          "type": "bool"
        }
      ],
      "payable": false,
      "stateMutability": "nonpayable",
      "type": "function"
    },
    {
      "constant": false,
      "inputs": [
        {
          "name": "_from",
          "type": "address"
        },
        {
          "name": "_to",
          "type": "address"
        },
        {
          "name": "_value",
          "type": "uint64"
        }
      ],
      "name": "transferFrom",
      "outputs": [
        {
          "name": "success",
          "type": "bool"
        }
      ],
      "payable": false,
      "stateMutability": "nonpayable",
      "type": "function"
    },
    {
      "constant": false,
      "inputs": [
        {
          "name": "_spender",
          "type": "address"
        },
        {
          "name": "_value",
          "type": "uint64"
        }
      ],
      "name": "approve",
      "outputs": [
        {
          "name": "success",
          "type": "bool"
        }
      ],
      "payable": false,
      "stateMutability": "nonpayable",
      "type": "function"
    },
    {
      "constant": true,
      "inputs": [
        {
          "name": "_owner",
          "type": "address"
        },
        {
          "name": "_spender",
          "type": "address"
        }
      ],
      "name": "allowance",
      "outputs": [
        {
          "name": "remaining",
          "type": "uint64"
        }
      ],
      "payable": false,
      "stateMutability": "view",
      "type": "function"
    }
  ],
  "bytecode": "0x608060405234801561001057600080fd5b50610400806100206000396000f300608060405260043610610078576000357c0100000000000000000000000000000000000000000000000000000000900463ffffffff1680631086a9aa1461007d57806318160ddd146100ba5780632ea0dfe1146100e55780635d359fbd1461012257806370a082311461015f578063dd62ed3e1461019c575b600080fd5b34801561008957600080fd5b506100a4600480360361009f91908101906102e2565b6101d9565b6040516100b1919061033c565b60405180910390f35b3480156100c657600080fd5b506100cf6101e1565b6040516100dc9190610357565b60405180910390f35b3480156100f157600080fd5b5061010c60048036036101079190810190610293565b6101e6565b604051610119919061033c565b60405180910390f35b34801561012e57600080fd5b50610149600480360361014491908101906102e2565b6101ef565b604051610156919061033c565b60405180910390f35b34801561016b57600080fd5b506101866004803603610181919081019061022e565b6101f7565b6040516101939190610357565b60405180910390f35b3480156101a857600080fd5b506101c360048036036101be9190810190610257565b6101fe565b6040516101d09190610357565b60405180910390f35b600092915050565b600090565b60009392505050565b600092915050565b6000919050565b600092915050565b60006102128235610392565b905092915050565b600061022682356103b2565b905092915050565b60006020828403121561024057600080fd5b600061024e84828501610206565b91505092915050565b6000806040838503121561026a57600080fd5b600061027885828601610206565b925050602061028985828601610206565b9150509250929050565b6000806000606084860312156102a857600080fd5b60006102b686828701610206565b93505060206102c786828701610206565b92505060406102d88682870161021a565b9150509250925092565b600080604083850312156102f557600080fd5b600061030385828601610206565b92505060206103148582860161021a565b9150509250929050565b61032781610372565b82525050565b6103368161037e565b82525050565b6000602082019050610351600083018461031e565b92915050565b600060208201905061036c600083018461032d565b92915050565b60008115159050919050565b600067ffffffffffffffff82169050919050565b600073ffffffffffffffffffffffffffffffffffffffff82169050919050565b600067ffffffffffffffff821690509190505600a265627a7a72305820626ddbba554874eea2462602b7fbfd9b9c343df2da0274a003cf9587491d25e26c6578706572696d656e74616cf50037",
  "source": "pragma solidity ^0.4.22;\npragma experimental ABIEncoderV2; \n\n\n// Library Deployed Address : 0x96426Bf0d20CF59f55093F9327F10A5bc28209Ff\n// Contract Deployed Address : 0x7501ef246b78912A3D6dA0dbF79f131c03eF6DB0\nimport 'openzeppelin-solidity/contracts/math/SafeMath.sol';\nimport 'openzeppelin-solidity/contracts/math/Math.sol';\n\n// ----------------------------------------------------------------------------\n// ERC Token Standard #20 Interface\n// https://github.com/ethereum/EIPs/blob/master/EIPS/eip-20-token-standard.md\n// ----------------------------------------------------------------------------\ncontract ERC20Interface {\n\n    function totalSupply() constant returns (uint64 supply) {}\n    function balanceOf(address _owner) constant returns (uint64 balance) {}\n    function transfer(address _to, uint64 _value) returns (bool success) {}\n    function transferFrom(address _from, address _to, uint64 _value) returns (bool success) {}\n    function approve(address _spender, uint64 _value) returns (bool success) {}\n    function allowance(address _owner, address _spender) constant returns (uint64 remaining) {}\n    event Transfer(address indexed _from, address indexed _to, uint64 _value);\n    event Approval(address indexed _owner, address indexed _spender, uint64 _value);\n}\n\n\n\n\n// ----------------------------------------------------------------------------\n// ERC20 Token, with the addition of symbol, name and decimals and assisted\n// token transfers\n// ----------------------------------------------------------------------------\ncontract Coin is ERC20Interface {\n   \n    using SafeMath for uint64; \n\n    address owner; \n    bytes32 public symbol;\n    bytes32 public  name;\n    uint8 public decimals;\n    uint64 public totalSupply;\n    uint64 public totalCoinPower;\n    uint64 public TVA;\n    //uint public questions;\n    //uint public answers;\n\n    uint64 public LDCR;\n    uint64 public LDVA;\n\n    struct ans_instance {\n        uint8 reaction;\n        uint16 upvotes;\n        uint16 downvotes;\n        bytes32 ansId;\n    }\n\n\n    /*\n    struct que_instance {\n\n        bool follow;\n        uint32 followers; \n        bytes32 queId; \n    };  \n\n    */\n    \n    \n    struct Answer{\n        address author;\n        uint16 upvotes;\n        uint16 downvotes;\n        uint64 coinsMade;   // frontend me moti k form me\n        uint64 lastModificationTimestamp;\n        uint64 creationTimestamp;\n        uint64 vaa;         //  value addition of answer\n        bytes32 ansId;      // ansId will be same as initial hash \n        bytes32 ans_hash;   // ans_hash will change if edit \n        bytes32 queId;\n        bool isValid;     // to check if answer is valid\n        \n        \n    }\n    \n    struct  Question{\n        address author;\n        uint32 followers;\n        uint64 coinsMade;\n        uint64 lastModificationTimestamp;\n        uint64 creationTimestamp;\n        bytes32 queId;\n        bytes32 que_hash;\n        mapping ( bytes32 => Answer ) answers; //ans_id---ans_hash\n        bytes32[] answerIndex;   // A list of answer indexes to enumerate keys of the above mapping \n        bool isValid;       // to check if answer is valid \n\n    }\n    \n     struct redeem_token {\n        uint8 no_of_redeems; \n        uint8 span_over_weeks;//last_time_redeem\n        uint64 amount; \n        uint64 time_of_redeem; //time of power_down\n        \n    }\n\n    \n    struct Profile{\n\n        uint64 coinPower;\n        uint64 vau;\n        uint64 lastSettlementTimestamp;\n        uint64 coins;\n        uint8 ipower;\n        \n        mapping (bytes32 => ans_instance ) answersReacted;   // key : answerId and value: is bande k reaction\n        bytes32[] answersReactedIndex;                       // A list of keys to enumerate above mapping \n        mapping (bytes32 => Answer) answersWritten;          // key : answerId and value: Answer struct\n        bytes32[] answersWrittenIndex;                    \n        mapping (bytes32 => Question ) ques;              // key : questionId and value : is bande k Question ki information \n        bytes32[] questionsIndex;                            // A list of keys to enumerate above mapping \n        bytes32 userName;  \n        redeem_token[] redeems;\n        \n    }\n\n \n    mapping (address => Profile) public users;\n    mapping (bytes32 => Question) public questions;  // Overall questions key : quesId and value : Question object\n\n\n    bytes32[] public questionsIndex;            // Index for above mapping\n    \n    Answer[] public allAnswers; \n    \n    mapping( bytes32 => Answer) answerMapping; \n\n    \n    // 1- Ans\n    // 2- Que\n    // 3- upvote\n    // 4- downvote\n    // 5- follow\n    mapping(uint8 => uint8) public work;\n   \n    \n    mapping(address => mapping(address => uint64)) allowed;\n\n\n\n    // ------------------------------------------------------------------------\n    // Constructor\n    // ------------------------------------------------------------------------\n    function coin() public {\n        \n        owner = msg.sender;\n        symbol = \"coin\";\n        name = \"coin Token\";\n        decimals = 8;\n        LDCR = 10**9;\n        LDVA = 10**4; \n        \n        work[1] = 20;\n        work[2] = 10;\n        work[3] = 1;\n        work[4] = 1;\n        work[5] = 1;\n        \n        \n\n        totalSupply = 10000000000000000;\n        users[msg.sender].coins=totalSupply;     // Give all initial token to contract creator\n        Transfer(address(0), msg.sender, totalSupply);\n        \n    }\n\n\n    // ------------------------------------------------------------------------\n    // Total supply\n    // ------------------------------------------------------------------------\n    function totalSupply() public constant returns (uint64) {\n        return totalSupply  - users[address(0)].coins;\n    }\n\n\n    // ------------------------------------------------------------------------\n    // Get the token balance for account tokenOwner\n    // ------------------------------------------------------------------------\n    function balanceOf(address tokenOwner) constant returns (uint64 balance) {\n        return users[tokenOwner].coins;\n    }\n\n\n    // ------------------------------------------------------------------------\n    // Transfer the balance from token owner's account to to account\n    // - Owner's account must have sufficient balance to transfer\n    // - 0 value transfers are allowed\n    // ------------------------------------------------------------------------\n    function transfer(address to, uint64 tokens) public returns (bool success) {\n        if(users[msg.sender].coins >= tokens && tokens> 0){\n            users[msg.sender].coins = users[msg.sender].coins.sub(tokens);\n            users[to].coins = users[to].coins.add(tokens);\n            Transfer(msg.sender, to, tokens);\n            return true;\n        }else {\n\n            return false;\n\n        }\n\n    }\n\n\n    // ------------------------------------------------------------------------\n    // Token owner can approve for spender to transferFrom(...) tokens\n    // from the token owner's account\n    //\n    // https://github.com/ethereum/EIPs/blob/master/EIPS/eip-20-token-standard.md\n    // recommends that there are no checks for the approval double-spend attack\n    // as this should be implemented in user interfaces \n    // ------------------------------------------------------------------------\n    function approve(address spender, uint64 tokens) public returns (bool success) {\n        allowed[msg.sender][spender] = tokens;\n        Approval(msg.sender, spender, tokens);\n        return true;\n    }\n\n\n    // ------------------------------------------------------------------------\n    // Transfer tokens from the from account to the to account\n    // \n    // The calling account must already have sufficient tokens approve(...)-d\n    // for spending from the from account and\n    // - From account must have sufficient balance to transfer\n    // - Spender must have sufficient allowance to transfer\n    // - 0 value transfers are allowed\n    // ------------------------------------------------------------------------\n    function transferFrom(address from, address to, uint64 tokens) public returns (bool success) {\n        users[from].coins = users[from].coins.sub(tokens);\n        allowed[from][msg.sender] = allowed[from][msg.sender].sub(tokens);\n        users[to].coins = users[to].coins.add(tokens);\n        Transfer(from, to, tokens);\n        return true;\n    }\n\n\n    // ------------------------------------------------------------------------\n    // Returns the amount of tokens approved by the owner that can be\n    // transferred to the spender's account\n    // ------------------------------------------------------------------------\n    function allowance(address tokenOwner, address spender) constant returns (uint64 remaining) {\n        return allowed[tokenOwner][spender];\n    }\n\n\n    // ------------------------------------------------------------------------\n    // Token owner can approve for spender to transferFrom(...) tokens\n    // from the token owner's account. The spender contract function\n    // receiveApproval(...) is then executed\n    // ------------------------------------------------------------------------\n    \n\n    // ------------------------------------------------------------------------\n    // Don't accept ETH\n    // ------------------------------------------------------------------------\n    function () public payable {\n        revert();\n    }\n\n\n    // ------------------------------------------------------------------------\n    // Owner can transfer out any accidentally sent ERC20 tokens\n    // ------------------------------------------------------------------------\n    function transferAnyERC20Token(address tokenAddress, uint64 tokens) public returns (bool success) {\n        \n        require(msg.sender == owner);\n        return ERC20Interface(tokenAddress).transfer(owner, tokens);\n    }\n\n    function valueAddition (uint8 work, uint8 ipower) internal returns(uint64 va)  {\n        return uint64(work).mul(uint64(ipower));\n    }\n\n    \n    \n\n   function VAU(address user, uint8 work) internal returns(uint64){\n        uint64 cp = users[user].coinPower;\n        uint64 offset = 10**16;\n        uint64 num = offset.mul(valueAddition(work, users[user].ipower).mul(cp)); \n        uint64 vau = num.div(totalCoinPower);\n        users[user].vau += vau; \n        return vau;\n    }\n    \n    function VAU2(address user, uint16 diff) internal returns(uint64){ \n        \n        uint64 cp = users[user].coinPower;\n        uint64 offset = 10**16;\n        uint64 num = offset.mul(uint64(diff).div(10).mul(cp)); \n        uint64 vau = num.div(totalCoinPower);\n        users[user].vau += vau; \n        TVA += vau; \n        return vau;\n        \n        \n    }\n    \n    function diffInWeeks(uint64 time1, uint64 time2) private returns (uint32) {\n        \n        uint64 diff = time2 - time1;   // diff is in milliseconds\n        require(diff>0);\n        \n        uint32 weeksDiff = uint32(diff.div(1000*84600*7));  \n          \n        return weeksDiff;     \n        \n        \n        \n    }\n\n    function TVAupdate(address user, uint8 work) private returns(uint64){\n        uint64 val=VAU(user, work);\n        TVA += val;\n        return val; \n    }\n\n\n    function userRefresh() public{\n        \n        \n        //coin power refresh\n        address banda = msg.sender;\n        uint64 coins = 0; \n        redeem_token[] storage rd = users[banda].redeems;\n        uint i;   // iterator\n        for(i=0; i<rd.length; i++)\n        {\n            coins += rd[i].amount.mul(uint64(diffInWeeks(rd[i].time_of_redeem, uint64(now))).div(rd[i].span_over_weeks));\n        }\n        users[banda].coinPower -= coins;\n        totalCoinPower -= coins;\n        users[banda].coins += coins;\n        \n        \n        //vote profit\n        for(i=0; i< users[msg.sender].answersReactedIndex.length;++i){\n            \n            ans_instance storage ai = users[msg.sender].answersReacted[users[msg.sender].answersReactedIndex[i]];\n            \n            Answer storage answer = answerMapping[users[msg.sender].answersReactedIndex[i]];\n            \n            uint16 diffUpvotes;\n            uint16 diffDownvotes;\n            \n            if(ai.reaction == 3){\n                \n                diffUpvotes = answer.upvotes - ai.upvotes; // assuming latest answer updates will be >= upvotes in a reaction \n                VAU2(msg.sender, diffUpvotes);\n                \n                \n            }else if(ai.reaction == 4){\n                \n                diffDownvotes = answer.downvotes - ai.downvotes;\n                VAU2(msg.sender, diffDownvotes);\n                \n            }\n            \n            ai.upvotes = answer.upvotes; \n            ai.downvotes = answer.downvotes; \n            \n            \n        \n        }\n        \n        \n    }\n\n     function coinRelease () view internal returns(uint64 coins) {\n        uint64 activity_change = LDCR.mul(totalSupply).mul(TVA-LDVA).div(LDVA).add(LDCR.mul(totalSupply));\n        uint64 vad = activity_change.div(1000000000000000);\n        if(vad >= 10000000000 ){\n            \n            return 10000000000;\n            \n        }else{\n            \n            return vad;  \n        }\n        \n    }\n    \n    \n\n      function power_up (uint64 coins) public returns(bool res) {\n        if(users[msg.sender].coins >= coins){\n            users[msg.sender].coins = users[msg.sender].coins.sub(coins);\n            users[msg.sender].coinPower = users[msg.sender].coinPower.add(coins);\n            totalCoinPower = totalCoinPower.add(coins);\n            return true;\n        }\n        else\n            return false;\n       }\n\n      function power_down (uint64 coinPower) public returns(bool res)  {\n        if(users[msg.sender].coinPower >= coinPower){\n            redeem_token memory rd;\n            rd.amount = coinPower;\n            rd.span_over_weeks = 20;\n            rd.time_of_redeem = uint64(now);\n            rd.no_of_redeems = 0;\n            users[msg.sender].redeems.push(rd);\n        }else\n            return false;                       \n     }\n\n      function NoteReactionAns(bytes32 queId, bytes32 ansId, uint8 reaction) public {\n        //NoteReaction\n        //va for author if upvote\n        // va to user\n        require(questions[queId].isValid == true);\n\n        Question storage q = questions[queId];\n\n        require(q.answers[ansId].isValid == true);\n    \n        Answer storage ans = q.answers[ansId];\n\n        require(users[msg.sender].answersReacted[ansId].reaction == 0 ); \n\n        ans.vaa += TVAupdate(msg.sender, work[reaction]);\n\n        if(reaction == 3)\n            ans.upvotes++;\n        if(reaction == 4)\n            ans.downvotes++;\n        \n        ans_instance memory ai;\n\n        ai.reaction = reaction;\n        ai.upvotes = ans.upvotes;\n        ai.downvotes = ans.downvotes;\n        ai.ansId = ansId; \n\n        users[msg.sender].answersReacted[ansId]=ai; \n        \n        if (reaction == 3){  //upvote and follow award money to author \n            ans.vaa += TVAupdate(ans.author, reaction);\n        }\n      }\n      \n      /*\n\n     function NoteReactionQue(uint8 queId, uint8 reaction){\n        //NoteReaction\n        //va for author if upvote\n        // va to user\n        TVAupdate(msg.sender, reaction);\n        if (reaction == 5){  //upvote and follow award money to\n            TVAupdate([ansId].author, reaction);\n        }\n     }  */\n \n    function addQuestion(bytes32 _hash) public{\n\n        Question memory q;\n        q.author = msg.sender; \n        q.lastModificationTimestamp = uint64(now);\n        q.creationTimestamp = uint64(now); \n        q.queId = _hash;     // ipfs hash on adding question to ipfs \n        q.que_hash = _hash;   // Initial hash \n        q.isValid=true; \n\n        questionsIndex.push(_hash);\n        questions[_hash]=q; \n        TVAupdate(msg.sender, work[2]); \n        \n    }\n\n    function addAnswer(bytes32 _queId, bytes32 _hash) public {  //  Give question id as input \n\n        require(questions[_queId].isValid == true);     // Check if this question exist \n\n        Answer storage answer;\n\n        answer.author=msg.sender;\n        answer.lastModificationTimestamp = uint64(now);\n        answer.creationTimestamp = uint64(now); \n        answer.ans_hash = _hash;\n        answer.ansId = _hash; \n        answer.queId = _queId; \n        answer.isValid = true; \n\n        questions[_queId].answerIndex.push(_hash);\n        questions[_queId].answers[_hash] = answer; \n        \n        allAnswers.push(answer);\n        answerMapping[_hash]=answer; \n        \n        TVAupdate(msg.sender, work[1]);\n        \n        \n\n\n    }\n\n    function followQuestion(bytes32 _queId) public{    // We only need the question id to follow\n\n        require(questions[_queId].isValid == true);     // Check if this question exist \n\n        Question storage question = questions[_queId];\n        question.followers += 1; \n\n    }\n\n    function updateQuestion(bytes32 _queId, bytes32 _hash) public {\n\n        require(questions[_queId].isValid==true);     // Check if this question exist       \n\n        Question storage question = questions[_queId];\n\n        require(question.author == msg.sender);   // If msg.sender is the author of this question \n\n        question.que_hash = _hash;\n        question.lastModificationTimestamp = uint64(now); \n    }\n\n    function updateAnswer(bytes32 _queId, bytes32 _ansId, bytes32 _hash) public{\n\n        require(questions[_queId].isValid == true);     // Check if this question exist  \n\n        Question storage question = questions[_queId];\n\n        require(question.answers[_ansId].isValid == true);   // It means this answer belongs to this question \n\n        Answer memory answer = question.answers[_ansId];  \n\n        require(answer.author == msg.sender);\n\n        answer.ans_hash = _hash;  \n        answer.lastModificationTimestamp = uint64(now);\n\n        question.answers[_ansId]=answer; \n\n    }\n\n    function getTrendingAnswersLength() public constant returns (uint){\n\n        return allAnswers.length;\n\n    }\n}",
  "sourcePath": "/Users/maxgrok/Desktop/kora/contracts/Coin.sol",
  "compiler": {
    "name": "solc",
    "version": "0.4.22+commit.4cb486ee.Emscripten.clang"
  },
  "schemaVersion": "3.3.1",
  "updatedAt": "2020-10-28T14:22:14.327Z",
  "networkType": "ethereum",
  "devdoc": {
    "methods": {}
  },
  "userdoc": {
    "methods": {}
  }
}