{
  "contractName": "SafeMathLib",
  "abi": [
    {
      "constant": false,
      "inputs": [
        {
          "name": "a",
          "type": "uint64"
        },
        {
          "name": "b",
          "type": "uint64"
        }
      ],
      "name": "times",
      "outputs": [
        {
          "name": "",
          "type": "uint64"
        }
      ],
      "payable": false,
      "stateMutability": "nonpayable",
      "type": "function"
    },
    {
      "constant": false,
      "inputs": [
        {
          "name": "a",
          "type": "uint64"
        },
        {
          "name": "b",
          "type": "uint64"
        }
      ],
      "name": "minus",
      "outputs": [
        {
          "name": "",
          "type": "uint64"
        }
      ],
      "payable": false,
      "stateMutability": "nonpayable",
      "type": "function"
    },
    {
      "constant": false,
      "inputs": [
        {
          "name": "a",
          "type": "uint64"
        },
        {
          "name": "b",
          "type": "uint64"
        }
      ],
      "name": "plus",
      "outputs": [
        {
          "name": "",
          "type": "uint64"
        }
      ],
      "payable": false,
      "stateMutability": "nonpayable",
      "type": "function"
    },
    {
      "constant": false,
      "inputs": [
        {
          "name": "a",
          "type": "uint64"
        },
        {
          "name": "b",
          "type": "uint64"
        }
      ],
      "name": "divided",
      "outputs": [
        {
          "name": "",
          "type": "uint64"
        }
      ],
      "payable": false,
      "stateMutability": "nonpayable",
      "type": "function"
    }
  ],
  "bytecode": "0x6103b1610030600b82828239805160001a6073146000811461002057610022565bfe5b5030600052607381538281f3007300000000000000000000000000000000000000003014608060405260043610610079576000357c0100000000000000000000000000000000000000000000000000000000900463ffffffff1680633b67b91d1461007e5780633bc42c3a146100f1578063a7ebdc9d14610164578063c04fa500146101d7575b600080fd5b81801561008a57600080fd5b506100c7600480360381019080803567ffffffffffffffff169060200190929190803567ffffffffffffffff16906020019092919050505061024a565b604051808267ffffffffffffffff1667ffffffffffffffff16815260200191505060405180910390f35b8180156100fd57600080fd5b5061013a600480360381019080803567ffffffffffffffff169060200190929190803567ffffffffffffffff169060200190929190505050610292565b604051808267ffffffffffffffff1667ffffffffffffffff16815260200191505060405180910390f35b81801561017057600080fd5b506101ad600480360381019080803567ffffffffffffffff169060200190929190803567ffffffffffffffff1690602001909291905050506102bf565b604051808267ffffffffffffffff1667ffffffffffffffff16815260200191505060405180910390f35b8180156101e357600080fd5b50610220600480360381019080803567ffffffffffffffff169060200190929190803567ffffffffffffffff169060200190929190505050610311565b604051808267ffffffffffffffff1667ffffffffffffffff16815260200191505060405180910390f35b60008060008367ffffffffffffffff1611151561026657600080fd5b8267ffffffffffffffff168467ffffffffffffffff1681151561028557fe5b0490508091505092915050565b60006102b48367ffffffffffffffff168367ffffffffffffffff161115610376565b818303905092915050565b60008082840190506103078467ffffffffffffffff168267ffffffffffffffff161015801561030257508367ffffffffffffffff168267ffffffffffffffff1610155b610376565b8091505092915050565b600080828402905061036c60008567ffffffffffffffff16148061036757508367ffffffffffffffff168567ffffffffffffffff168367ffffffffffffffff1681151561035a57fe5b0467ffffffffffffffff16145b610376565b8091505092915050565b80151561038257600080fd5b505600a165627a7a72305820e5fd5f7ac1ad2432ca0ff4160a915772ced860634d65f507fa2e956cbb11886d0029",
  "source": "pragma solidity ^0.4.22;\n\nlibrary SafeMathLib{\n\n    function times(uint64 a, uint64 b) returns (uint64){\n\n        uint64 c = a*b; \n\n        assert (a==0 || c/a == b);\n\n        return c; \n\n    }\n\n    function minus(uint64 a, uint64 b ) returns (uint64) {\n\n\n        assert(b<=a);\n\n        return a-b;\n\n    }\n\n    function plus(uint64 a, uint64 b) returns (uint64){\n\n        uint64 c= a+b; \n        assert(c>=a && c>=b) ;\n        return c;\n\n    }\n\n    function divided(uint64 a, uint64 b) returns (uint64) {\n        require(b > 0);\n        uint64 c = a / b;\n        return c;\n    }\n\n    function assert(bool assertion) private{\n\n        if(!assertion) throw;\n\n    }\n\n}",
  "sourcePath": "/Users/maxgrok/Desktop/kora/contracts/SafeMathLib.sol",
  "compiler": {
    "name": "solc",
    "version": "0.4.22+commit.4cb486ee.Emscripten.clang"
  },
  "schemaVersion": "3.3.1",
  "updatedAt": "2020-10-28T14:22:14.310Z",
  "networkType": "ethereum",
  "devdoc": {
    "methods": {}
  },
  "userdoc": {
    "methods": {}
  }
}